{
  "contractName": "seed",
  "abi": [
    {
      "inputs": [],
      "payable": false,
      "stateMutability": "nonpayable",
      "type": "constructor"
    },
    {
      "anonymous": false,
      "inputs": [
        {
          "indexed": true,
          "internalType": "address",
          "name": "user",
          "type": "address"
        },
        {
          "indexed": false,
          "internalType": "string",
          "name": "batchNo",
          "type": "string"
        }
      ],
      "name": "BatchAdded",
      "type": "event"
    },
    {
      "anonymous": false,
      "inputs": [
        {
          "indexed": true,
          "internalType": "address",
          "name": "user",
          "type": "address"
        },
        {
          "indexed": false,
          "internalType": "string",
          "name": "batchNo",
          "type": "string"
        }
      ],
      "name": "DoneCertification",
      "type": "event"
    },
    {
      "anonymous": false,
      "inputs": [
        {
          "indexed": true,
          "internalType": "address",
          "name": "user",
          "type": "address"
        },
        {
          "indexed": false,
          "internalType": "string",
          "name": "batchNo",
          "type": "string"
        }
      ],
      "name": "DoneCultivation",
      "type": "event"
    },
    {
      "anonymous": false,
      "inputs": [
        {
          "indexed": true,
          "internalType": "address",
          "name": "user",
          "type": "address"
        },
        {
          "indexed": false,
          "internalType": "string",
          "name": "batchNo",
          "type": "string"
        }
      ],
      "name": "DoneDistribution",
      "type": "event"
    },
    {
      "anonymous": false,
      "inputs": [
        {
          "indexed": true,
          "internalType": "address",
          "name": "user",
          "type": "address"
        },
        {
          "indexed": false,
          "internalType": "string",
          "name": "batchNo",
          "type": "string"
        }
      ],
      "name": "DoneLab",
      "type": "event"
    },
    {
      "anonymous": false,
      "inputs": [
        {
          "indexed": true,
          "internalType": "address",
          "name": "user",
          "type": "address"
        },
        {
          "indexed": false,
          "internalType": "string",
          "name": "batchNo",
          "type": "string"
        }
      ],
      "name": "DoneProcessing",
      "type": "event"
    },
    {
      "anonymous": false,
      "inputs": [
        {
          "indexed": true,
          "internalType": "address",
          "name": "previousOwner",
          "type": "address"
        }
      ],
      "name": "OwnershipRenounced",
      "type": "event"
    },
    {
      "anonymous": false,
      "inputs": [
        {
          "indexed": true,
          "internalType": "address",
          "name": "previousOwner",
          "type": "address"
        },
        {
          "indexed": true,
          "internalType": "address",
          "name": "newOwner",
          "type": "address"
        }
      ],
      "name": "OwnershipTransferred",
      "type": "event"
    },
    {
      "anonymous": false,
      "inputs": [
        {
          "indexed": true,
          "internalType": "address",
          "name": "user",
          "type": "address"
        },
        {
          "indexed": false,
          "internalType": "string",
          "name": "name",
          "type": "string"
        },
        {
          "indexed": false,
          "internalType": "string",
          "name": "userType",
          "type": "string"
        }
      ],
      "name": "UserAdded",
      "type": "event"
    },
    {
      "constant": true,
      "inputs": [],
      "name": "owner",
      "outputs": [
        {
          "internalType": "address",
          "name": "",
          "type": "address"
        }
      ],
      "payable": false,
      "stateMutability": "view",
      "type": "function"
    },
    {
      "constant": false,
      "inputs": [],
      "name": "renounceOwnership",
      "outputs": [],
      "payable": false,
      "stateMutability": "nonpayable",
      "type": "function"
    },
    {
      "constant": false,
      "inputs": [
        {
          "internalType": "address",
          "name": "newOwner",
          "type": "address"
        }
      ],
      "name": "transferOwnership",
      "outputs": [],
      "payable": false,
      "stateMutability": "nonpayable",
      "type": "function"
    },
    {
      "constant": true,
      "inputs": [
        {
          "internalType": "address",
          "name": "_user",
          "type": "address"
        }
      ],
      "name": "getUserRole",
      "outputs": [
        {
          "internalType": "string",
          "name": "",
          "type": "string"
        }
      ],
      "payable": false,
      "stateMutability": "view",
      "type": "function"
    },
    {
      "constant": true,
      "inputs": [
        {
          "internalType": "string",
          "name": "batchNo",
          "type": "string"
        }
      ],
      "name": "getNextAction",
      "outputs": [
        {
          "internalType": "string",
          "name": "",
          "type": "string"
        }
      ],
      "payable": false,
      "stateMutability": "view",
      "type": "function"
    },
    {
      "constant": false,
      "inputs": [
        {
          "internalType": "address",
          "name": "_userAddress",
          "type": "address"
        },
        {
          "internalType": "string",
          "name": "_name",
          "type": "string"
        },
        {
          "internalType": "string",
          "name": "_userType",
          "type": "string"
        }
      ],
      "name": "setUser",
      "outputs": [
        {
          "internalType": "bool",
          "name": "",
          "type": "bool"
        }
      ],
      "payable": false,
      "stateMutability": "nonpayable",
      "type": "function"
    },
    {
      "constant": true,
      "inputs": [
        {
          "internalType": "address",
          "name": "_user",
          "type": "address"
        }
      ],
      "name": "getUser",
      "outputs": [
        {
          "internalType": "string",
          "name": "name",
          "type": "string"
        },
        {
          "internalType": "string",
          "name": "userType",
          "type": "string"
        }
      ],
      "payable": false,
      "stateMutability": "view",
      "type": "function"
    },
    {
      "constant": false,
      "inputs": [
        {
          "internalType": "string",
          "name": "_batchId",
          "type": "string"
        },
        {
          "internalType": "string",
          "name": "_crop",
          "type": "string"
        },
        {
          "internalType": "string",
          "name": "_variety",
          "type": "string"
        },
        {
          "internalType": "uint256",
          "name": "_sourceQuantity",
          "type": "uint256"
        },
        {
          "internalType": "string",
          "name": "_Date",
          "type": "string"
        },
        {
          "internalType": "string",
          "name": "_Owner",
          "type": "string"
        },
        {
          "internalType": "uint256",
          "name": "_plotno",
          "type": "uint256"
        }
      ],
      "name": "setBatchDetails",
      "outputs": [
        {
          "internalType": "bool",
          "name": "",
          "type": "bool"
        }
      ],
      "payable": false,
      "stateMutability": "nonpayable",
      "type": "function"
    },
    {
      "constant": true,
      "inputs": [
        {
          "internalType": "string",
          "name": "_batchId",
          "type": "string"
        }
      ],
      "name": "getBatchDetails",
      "outputs": [
        {
          "internalType": "string",
          "name": "_crop",
          "type": "string"
        },
        {
          "internalType": "string",
          "name": "_variety",
          "type": "string"
        },
        {
          "internalType": "uint256",
          "name": "_sourceQuantity",
          "type": "uint256"
        },
        {
          "internalType": "string",
          "name": "_Date",
          "type": "string"
        },
        {
          "internalType": "string",
          "name": "_Owner",
          "type": "string"
        },
        {
          "internalType": "uint256",
          "name": "_plotno",
          "type": "uint256"
        }
      ],
      "payable": false,
      "stateMutability": "view",
      "type": "function"
    },
    {
      "constant": false,
      "inputs": [
        {
          "internalType": "string",
          "name": "_batchId",
          "type": "string"
        },
        {
          "internalType": "string",
          "name": "_date",
          "type": "string"
        }
      ],
      "name": "setSeedGrower",
      "outputs": [
        {
          "internalType": "bool",
          "name": "",
          "type": "bool"
        }
      ],
      "payable": false,
      "stateMutability": "nonpayable",
      "type": "function"
    },
    {
      "constant": true,
      "inputs": [
        {
          "internalType": "string",
          "name": "_batchId",
          "type": "string"
        }
      ],
      "name": "getSeedGrower",
      "outputs": [
        {
          "internalType": "string",
          "name": "date",
          "type": "string"
        }
      ],
      "payable": false,
      "stateMutability": "view",
      "type": "function"
    },
    {
      "constant": false,
      "inputs": [
        {
          "internalType": "string",
          "name": "_batchId",
          "type": "string"
        },
        {
          "internalType": "uint256",
          "name": "_quantity",
          "type": "uint256"
        },
        {
          "internalType": "string",
          "name": "_date",
          "type": "string"
        }
      ],
      "name": "setProcessor",
      "outputs": [
        {
          "internalType": "bool",
          "name": "",
          "type": "bool"
        }
      ],
      "payable": false,
      "stateMutability": "nonpayable",
      "type": "function"
    },
    {
      "constant": true,
      "inputs": [
        {
          "internalType": "string",
          "name": "_batchId",
          "type": "string"
        }
      ],
      "name": "getProcessor",
      "outputs": [
        {
          "internalType": "uint256",
          "name": "_quantity",
          "type": "uint256"
        },
        {
          "internalType": "string",
          "name": "_date",
          "type": "string"
        }
      ],
      "payable": false,
      "stateMutability": "view",
      "type": "function"
    },
    {
      "constant": false,
      "inputs": [
        {
          "internalType": "string",
          "name": "_batchId",
          "type": "string"
        },
        {
          "internalType": "string",
          "name": "_date",
          "type": "string"
        },
        {
          "internalType": "string",
          "name": "_result",
          "type": "string"
        }
      ],
      "name": "setLab",
      "outputs": [
        {
          "internalType": "bool",
          "name": "",
          "type": "bool"
        }
      ],
      "payable": false,
      "stateMutability": "nonpayable",
      "type": "function"
    },
    {
      "constant": true,
      "inputs": [
        {
          "internalType": "string",
          "name": "_batchId",
          "type": "string"
        }
      ],
      "name": "getLab",
      "outputs": [
        {
          "internalType": "string",
          "name": "_date",
          "type": "string"
        },
        {
          "internalType": "string",
          "name": "_result",
          "type": "string"
        }
      ],
      "payable": false,
      "stateMutability": "view",
      "type": "function"
    },
    {
      "constant": false,
      "inputs": [
        {
          "internalType": "string",
          "name": "_batchId",
          "type": "string"
        },
        {
          "internalType": "string",
          "name": "_certifacateNo",
          "type": "string"
        },
        {
          "internalType": "string",
          "name": "_date",
          "type": "string"
        },
        {
          "internalType": "uint256",
          "name": "_validity",
          "type": "uint256"
        }
      ],
      "name": "setCertification",
      "outputs": [
        {
          "internalType": "bool",
          "name": "",
          "type": "bool"
        }
      ],
      "payable": false,
      "stateMutability": "nonpayable",
      "type": "function"
    },
    {
      "constant": true,
      "inputs": [
        {
          "internalType": "string",
          "name": "_batchId",
          "type": "string"
        }
      ],
      "name": "getCertification",
      "outputs": [
        {
          "internalType": "string",
          "name": "_certifacateNo",
          "type": "string"
        },
        {
          "internalType": "string",
          "name": "_date",
          "type": "string"
        },
        {
          "internalType": "uint256",
          "name": "_validity",
          "type": "uint256"
        }
      ],
      "payable": false,
      "stateMutability": "view",
      "type": "function"
    },
    {
      "constant": false,
      "inputs": [
        {
          "internalType": "string",
          "name": "_batchId",
          "type": "string"
        },
        {
          "internalType": "string",
          "name": "_storeHouse",
          "type": "string"
        },
        {
          "internalType": "string",
          "name": "_Date",
          "type": "string"
        }
      ],
      "name": "setDistribution",
      "outputs": [
        {
          "internalType": "bool",
          "name": "",
          "type": "bool"
        }
      ],
      "payable": false,
      "stateMutability": "nonpayable",
      "type": "function"
    },
    {
      "constant": true,
      "inputs": [
        {
          "internalType": "string",
          "name": "_batchId",
          "type": "string"
        }
      ],
      "name": "getDistribution",
      "outputs": [
        {
          "internalType": "string",
          "name": "_storeHouse",
          "type": "string"
        },
        {
          "internalType": "string",
          "name": "_Date",
          "type": "string"
        }
      ],
      "payable": false,
      "stateMutability": "view",
      "type": "function"
    }
  ],
  "bytecode": "0x608060405234801561001057600080fd5b50336000806101000a81548173ffffffffffffffffffffffffffffffffffffffff021916908373ffffffffffffffffffffffffffffffffffffffff16021790555060018060003373ffffffffffffffffffffffffffffffffffffffff1673ffffffffffffffffffffffffffffffffffffffff168152602001908152602001600020819055506152df806100a46000396000f3fe608060405234801561001057600080fd5b50600436106101215760003560e01c80636a29edca116100ad5780639cb40476116100715780639cb4047614611548578063b208f83f14611749578063b38692b4146118e9578063f1aace7a14611af4578063f2fde38b14611c2857610121565b80636a29edca14610fd15780636f77926b14611145578063715018a61461126e5780638da5cb5b146112785780639a1e51ca146112c257610121565b806354e7d4e0116100f457806354e7d4e01461062f5780635f99a6591461083057806361976d2c146109d05780636761adbd14610b0457806368f43a5914610e4757610121565b8063146e8e861461012657806327820851146102905780633344ef091461034d5780634f7b3c7d14610488575b600080fd5b6102766004803603604081101561013c57600080fd5b810190808035906020019064010000000081111561015957600080fd5b82018360208201111561016b57600080fd5b8035906020019184600183028401116401000000008311171561018d57600080fd5b91908080601f016020809104026020016040519081016040528093929190818152602001838380828437600081840152601f19601f820116905080830192505050505050509192919290803590602001906401000000008111156101f057600080fd5b82018360208201111561020257600080fd5b8035906020019184600183028401116401000000008311171561022457600080fd5b91908080601f016020809104026020016040519081016040528093929190818152602001838380828437600081840152601f19601f820116905080830192505050505050509192919290505050611c6c565b604051808215151515815260200191505060405180910390f35b6102d2600480360360208110156102a657600080fd5b81019080803573ffffffffffffffffffffffffffffffffffffffff1690602001909291905050506120b3565b6040518080602001828103825283818151815260200191508051906020019080838360005b838110156103125780820151818401526020810190506102f7565b50505050905090810190601f16801561033f5780820380516001836020036101000a031916815260200191505b509250505060405180910390f35b6104066004803603602081101561036357600080fd5b810190808035906020019064010000000081111561038057600080fd5b82018360208201111561039257600080fd5b803590602001918460018302840111640100000000831117156103b457600080fd5b91908080601f016020809104026020016040519081016040528093929190818152602001838380828437600081840152601f19601f820116905080830192505050505050509192919290505050612194565b6040518083815260200180602001828103825283818151815260200191508051906020019080838360005b8381101561044c578082015181840152602081019050610431565b50505050905090810190601f1680156104795780820380516001836020036101000a031916815260200191505b50935050505060405180910390f35b6105416004803603602081101561049e57600080fd5b81019080803590602001906401000000008111156104bb57600080fd5b8201836020820111156104cd57600080fd5b803590602001918460018302840111640100000000831117156104ef57600080fd5b91908080601f016020809104026020016040519081016040528093929190818152602001838380828437600081840152601f19601f82011690508083019250505050505050919291929050505061237b565b604051808060200180602001848152602001838103835286818151815260200191508051906020019080838360005b8381101561058b578082015181840152602081019050610570565b50505050905090810190601f1680156105b85780820380516001836020036101000a031916815260200191505b50838103825285818151815260200191508051906020019080838360005b838110156105f15780820151818401526020810190506105d6565b50505050905090810190601f16801561061e5780820380516001836020036101000a031916815260200191505b509550505050505060405180910390f35b6108166004803603606081101561064557600080fd5b810190808035906020019064010000000081111561066257600080fd5b82018360208201111561067457600080fd5b8035906020019184600183028401116401000000008311171561069657600080fd5b91908080601f016020809104026020016040519081016040528093929190818152602001838380828437600081840152601f19601f820116905080830192505050505050509192919290803590602001906401000000008111156106f957600080fd5b82018360208201111561070b57600080fd5b8035906020019184600183028401116401000000008311171561072d57600080fd5b91908080601f016020809104026020016040519081016040528093929190818152602001838380828437600081840152601f19601f8201169050808301925050505050505091929192908035906020019064010000000081111561079057600080fd5b8201836020820111156107a257600080fd5b803590602001918460018302840111640100000000831117156107c457600080fd5b91908080601f016020809104026020016040519081016040528093929190818152602001838380828437600081840152601f19601f820116905080830192505050505050509192919290505050612611565b604051808215151515815260200191505060405180910390f35b6108e96004803603602081101561084657600080fd5b810190808035906020019064010000000081111561086357600080fd5b82018360208201111561087557600080fd5b8035906020019184600183028401116401000000008311171561089757600080fd5b91908080601f016020809104026020016040519081016040528093929190818152602001838380828437600081840152601f19601f820116905080830192505050505050509192919290505050612add565b604051808060200180602001838103835285818151815260200191508051906020019080838360005b8381101561092d578082015181840152602081019050610912565b50505050905090810190601f16801561095a5780820380516001836020036101000a031916815260200191505b50838103825284818151815260200191508051906020019080838360005b83811015610993578082015181840152602081019050610978565b50505050905090810190601f1680156109c05780820380516001836020036101000a031916815260200191505b5094505050505060405180910390f35b610a89600480360360208110156109e657600080fd5b8101908080359060200190640100000000811115610a0357600080fd5b820183602082011115610a1557600080fd5b80359060200191846001830284011164010000000083111715610a3757600080fd5b91908080601f016020809104026020016040519081016040528093929190818152602001838380828437600081840152601f19601f820116905080830192505050505050509192919290505050612d5e565b6040518080602001828103825283818151815260200191508051906020019080838360005b83811015610ac9578082015181840152602081019050610aae565b50505050905090810190601f168015610af65780820380516001836020036101000a031916815260200191505b509250505060405180910390f35b610e2d600480360360e0811015610b1a57600080fd5b8101908080359060200190640100000000811115610b3757600080fd5b820183602082011115610b4957600080fd5b80359060200191846001830284011164010000000083111715610b6b57600080fd5b91908080601f016020809104026020016040519081016040528093929190818152602001838380828437600081840152601f19601f82011690508083019250505050505050919291929080359060200190640100000000811115610bce57600080fd5b820183602082011115610be057600080fd5b80359060200191846001830284011164010000000083111715610c0257600080fd5b91908080601f016020809104026020016040519081016040528093929190818152602001838380828437600081840152601f19601f82011690508083019250505050505050919291929080359060200190640100000000811115610c6557600080fd5b820183602082011115610c7757600080fd5b80359060200191846001830284011164010000000083111715610c9957600080fd5b91908080601f016020809104026020016040519081016040528093929190818152602001838380828437600081840152601f19601f8201169050808301925050505050505091929192908035906020019092919080359060200190640100000000811115610d0657600080fd5b820183602082011115610d1857600080fd5b80359060200191846001830284011164010000000083111715610d3a57600080fd5b91908080601f016020809104026020016040519081016040528093929190818152602001838380828437600081840152601f19601f82011690508083019250505050505050919291929080359060200190640100000000811115610d9d57600080fd5b820183602082011115610daf57600080fd5b80359060200191846001830284011164010000000083111715610dd157600080fd5b91908080601f016020809104026020016040519081016040528093929190818152602001838380828437600081840152601f19601f82011690508083019250505050505050919291929080359060200190929190505050612e69565b604051808215151515815260200191505060405180910390f35b610fb760048036036060811015610e5d57600080fd5b81019080803573ffffffffffffffffffffffffffffffffffffffff16906020019092919080359060200190640100000000811115610e9a57600080fd5b820183602082011115610eac57600080fd5b80359060200191846001830284011164010000000083111715610ece57600080fd5b91908080601f016020809104026020016040519081016040528093929190818152602001838380828437600081840152601f19601f82011690508083019250505050505050919291929080359060200190640100000000811115610f3157600080fd5b820183602082011115610f4357600080fd5b80359060200191846001830284011164010000000083111715610f6557600080fd5b91908080601f016020809104026020016040519081016040528093929190818152602001838380828437600081840152601f19601f820116905080830192505050505050509192919290505050613370565b604051808215151515815260200191505060405180910390f35b61112b60048036036060811015610fe757600080fd5b810190808035906020019064010000000081111561100457600080fd5b82018360208201111561101657600080fd5b8035906020019184600183028401116401000000008311171561103857600080fd5b91908080601f016020809104026020016040519081016040528093929190818152602001838380828437600081840152601f19601f82011690508083019250505050505050919291929080359060200190929190803590602001906401000000008111156110a557600080fd5b8201836020820111156110b757600080fd5b803590602001918460018302840111640100000000831117156110d957600080fd5b91908080601f016020809104026020016040519081016040528093929190818152602001838380828437600081840152601f19601f82011690508083019250505050505050919291929050505061365d565b604051808215151515815260200191505060405180910390f35b6111876004803603602081101561115b57600080fd5b81019080803573ffffffffffffffffffffffffffffffffffffffff169060200190929190505050613afb565b604051808060200180602001838103835285818151815260200191508051906020019080838360005b838110156111cb5780820151818401526020810190506111b0565b50505050905090810190601f1680156111f85780820380516001836020036101000a031916815260200191505b50838103825284818151815260200191508051906020019080838360005b83811015611231578082015181840152602081019050611216565b50505050905090810190601f16801561125e5780820380516001836020036101000a031916815260200191505b5094505050505060405180910390f35b611276613cb0565b005b611280613db0565b604051808273ffffffffffffffffffffffffffffffffffffffff1673ffffffffffffffffffffffffffffffffffffffff16815260200191505060405180910390f35b61137b600480360360208110156112d857600080fd5b81019080803590602001906401000000008111156112f557600080fd5b82018360208201111561130757600080fd5b8035906020019184600183028401116401000000008311171561132957600080fd5b91908080601f016020809104026020016040519081016040528093929190818152602001838380828437600081840152601f19601f820116905080830192505050505050509192919290505050613dd5565b604051808060200180602001878152602001806020018060200186815260200185810385528b818151815260200191508051906020019080838360005b838110156113d35780820151818401526020810190506113b8565b50505050905090810190601f1680156114005780820380516001836020036101000a031916815260200191505b5085810384528a818151815260200191508051906020019080838360005b8381101561143957808201518184015260208101905061141e565b50505050905090810190601f1680156114665780820380516001836020036101000a031916815260200191505b50858103835288818151815260200191508051906020019080838360005b8381101561149f578082015181840152602081019050611484565b50505050905090810190601f1680156114cc5780820380516001836020036101000a031916815260200191505b50858103825287818151815260200191508051906020019080838360005b838110156115055780820151818401526020810190506114ea565b50505050905090810190601f1680156115325780820380516001836020036101000a031916815260200191505b509a505050505050505050505060405180910390f35b61172f6004803603606081101561155e57600080fd5b810190808035906020019064010000000081111561157b57600080fd5b82018360208201111561158d57600080fd5b803590602001918460018302840111640100000000831117156115af57600080fd5b91908080601f016020809104026020016040519081016040528093929190818152602001838380828437600081840152601f19601f8201169050808301925050505050505091929192908035906020019064010000000081111561161257600080fd5b82018360208201111561162457600080fd5b8035906020019184600183028401116401000000008311171561164657600080fd5b91908080601f016020809104026020016040519081016040528093929190818152602001838380828437600081840152601f19601f820116905080830192505050505050509192919290803590602001906401000000008111156116a957600080fd5b8201836020820111156116bb57600080fd5b803590602001918460018302840111640100000000831117156116dd57600080fd5b91908080601f016020809104026020016040519081016040528093929190818152602001838380828437600081840152601f19601f8201169050808301925050505050505091929192905050506141db565b604051808215151515815260200191505060405180910390f35b6118026004803603602081101561175f57600080fd5b810190808035906020019064010000000081111561177c57600080fd5b82018360208201111561178e57600080fd5b803590602001918460018302840111640100000000831117156117b057600080fd5b91908080601f016020809104026020016040519081016040528093929190818152602001838380828437600081840152601f19601f8201169050808301925050505050505091929192905050506146a7565b604051808060200180602001838103835285818151815260200191508051906020019080838360005b8381101561184657808201518184015260208101905061182b565b50505050905090810190601f1680156118735780820380516001836020036101000a031916815260200191505b50838103825284818151815260200191508051906020019080838360005b838110156118ac578082015181840152602081019050611891565b50505050905090810190601f1680156118d95780820380516001836020036101000a031916815260200191505b5094505050505060405180910390f35b611ada600480360360808110156118ff57600080fd5b810190808035906020019064010000000081111561191c57600080fd5b82018360208201111561192e57600080fd5b8035906020019184600183028401116401000000008311171561195057600080fd5b91908080601f016020809104026020016040519081016040528093929190818152602001838380828437600081840152601f19601f820116905080830192505050505050509192919290803590602001906401000000008111156119b357600080fd5b8201836020820111156119c557600080fd5b803590602001918460018302840111640100000000831117156119e757600080fd5b91908080601f016020809104026020016040519081016040528093929190818152602001838380828437600081840152601f19601f82011690508083019250505050505050919291929080359060200190640100000000811115611a4a57600080fd5b820183602082011115611a5c57600080fd5b80359060200191846001830284011164010000000083111715611a7e57600080fd5b91908080601f016020809104026020016040519081016040528093929190818152602001838380828437600081840152601f19601f82011690508083019250505050505050919291929080359060200190929190505050614928565b604051808215151515815260200191505060405180910390f35b611bad60048036036020811015611b0a57600080fd5b8101908080359060200190640100000000811115611b2757600080fd5b820183602082011115611b3957600080fd5b80359060200191846001830284011164010000000083111715611b5b57600080fd5b91908080601f016020809104026020016040519081016040528093929190818152602001838380828437600081840152601f19601f820116905080830192505050505050509192919290505050614e09565b6040518080602001828103825283818151815260200191508051906020019080838360005b83811015611bed578082015181840152602081019050611bd2565b50505050905090810190601f168015611c1a5780820380516001836020036101000a031916815260200191505b509250505060405180910390f35b611c6a60048036036020811015611c3e57600080fd5b81019080803573ffffffffffffffffffffffffffffffffffffffff169060200190929190505050614f38565b005b6000826040518060400160405280600a81526020017f5365656447726f77657200000000000000000000000000000000000000000000815250806040516020018082805190602001908083835b60208310611cdc5780518252602082019150602081019050602083039250611cb9565b6001836020036101000a03801982511681845116808217855250505050505090500191505060405160208183030381529060405280519060200120611d20336120b3565b6040516020018082805190602001908083835b60208310611d565780518252602082019150602081019050602083039250611d33565b6001836020036101000a0380198251168184511680821785525050505050509050019150506040516020818303038152906040528051906020012014611d9b57600080fd5b806040516020018082805190602001908083835b60208310611dd25780518252602082019150602081019050602083039250611daf565b6001836020036101000a03801982511681845116808217855250505050505090500191505060405160208183030381529060405280519060200120611e1683612d5e565b6040516020018082805190602001908083835b60208310611e4c5780518252602082019150602081019050602083039250611e29565b6001836020036101000a0380198251168184511680821785525050505050509050019150506040516020818303038152906040528051906020012014611e9157600080fd5b8360156000019080519060200190611eaa929190615089565b5060156003866040518082805190602001908083835b60208310611ee35780518252602082019150602081019050602083039250611ec0565b6001836020036101000a038019825116818451168082178552505050505050905001915050908152602001604051809103902060008201816000019080546001816001161561010002031660029004611f3d929190615109565b509050506040518060400160405280600981526020017f50726f636573736f7200000000000000000000000000000000000000000000008152506008866040518082805190602001908083835b60208310611fad5780518252602082019150602081019050602083039250611f8a565b6001836020036101000a03801982511681845116808217855250505050505090500191505090815260200160405180910390209080519060200190611ff3929190615089565b503373ffffffffffffffffffffffffffffffffffffffff167f9df21ace8f445902ce25394f9317a0c6028815ac9047888f994789c9d18641a8866040518080602001828103825283818151815260200191508051906020019080838360005b8381101561206d578082015181840152602081019050612052565b50505050905090810190601f16801561209a5780820380516001836020036101000a031916815260200191505b509250505060405180910390a260019250505092915050565b6060600960008373ffffffffffffffffffffffffffffffffffffffff1673ffffffffffffffffffffffffffffffffffffffff1681526020019081526020016000208054600181600116156101000203166002900480601f0160208091040260200160405190810160405280929190818152602001828054600181600116156101000203166002900480156121885780601f1061215d57610100808354040283529160200191612188565b820191906000526020600020905b81548152906001019060200180831161216b57829003601f168201915b50505050509050919050565b600060606121a0615190565b6004846040518082805190602001908083835b602083106121d657805182526020820191506020810190506020830392506121b3565b6001836020036101000a0380198251168184511680821785525050505050509050019150509081526020016040518091039020604051806060016040529081600082018054600181600116156101000203166002900480601f0160208091040260200160405190810160405280929190818152602001828054600181600116156101000203166002900480156122ad5780601f10612282576101008083540402835291602001916122ad565b820191906000526020600020905b81548152906001019060200180831161229057829003601f168201915b5050505050815260200160018201548152602001600282018054600181600116156101000203166002900480601f0160208091040260200160405190810160405280929190818152602001828054600181600116156101000203166002900480156123595780601f1061232e57610100808354040283529160200191612359565b820191906000526020600020905b81548152906001019060200180831161233c57829003601f168201915b5050505050815250509050806020015181604001518090509250925050915091565b60608060006123886151b1565b6006856040518082805190602001908083835b602083106123be578051825260208201915060208101905060208303925061239b565b6001836020036101000a0380198251168184511680821785525050505050509050019150509081526020016040518091039020604051806080016040529081600082018054600181600116156101000203166002900480601f0160208091040260200160405190810160405280929190818152602001828054600181600116156101000203166002900480156124955780601f1061246a57610100808354040283529160200191612495565b820191906000526020600020905b81548152906001019060200180831161247857829003601f168201915b50505050508152602001600182018054600181600116156101000203166002900480601f0160208091040260200160405190810160405280929190818152602001828054600181600116156101000203166002900480156125375780601f1061250c57610100808354040283529160200191612537565b820191906000526020600020905b81548152906001019060200180831161251a57829003601f168201915b50505050508152602001600282018054600181600116156101000203166002900480601f0160208091040260200160405190810160405280929190818152602001828054600181600116156101000203166002900480156125d95780601f106125ae576101008083540402835291602001916125d9565b820191906000526020600020905b8154815290600101906020018083116125bc57829003601f168201915b505050505081526020016003820154815250509050806020015181604001518260600151829250819150935093509350509193909250565b6000836040518060400160405280600381526020017f4c61620000000000000000000000000000000000000000000000000000000000815250806040516020018082805190602001908083835b60208310612681578051825260208201915060208101905060208303925061265e565b6001836020036101000a038019825116818451168082178552505050505050905001915050604051602081830303815290604052805190602001206126c5336120b3565b6040516020018082805190602001908083835b602083106126fb57805182526020820191506020810190506020830392506126d8565b6001836020036101000a038019825116818451168082178552505050505050905001915050604051602081830303815290604052805190602001201461274057600080fd5b806040516020018082805190602001908083835b602083106127775780518252602082019150602081019050602083039250612754565b6001836020036101000a038019825116818451168082178552505050505050905001915050604051602081830303815290604052805190602001206127bb83612d5e565b6040516020018082805190602001908083835b602083106127f157805182526020820191506020810190506020830392506127ce565b6001836020036101000a038019825116818451168082178552505050505050905001915050604051602081830303815290604052805190602001201461283657600080fd5b856019600001908051906020019061284f929190615089565b508460196001019080519060200190612869929190615089565b508360196002019080519060200190612883929190615089565b5060196005876040518082805190602001908083835b602083106128bc5780518252602082019150602081019050602083039250612899565b6001836020036101000a038019825116818451168082178552505050505050905001915050908152602001604051809103902060008201816000019080546001816001161561010002031660029004612916929190615109565b506001820181600101908054600181600116156101000203166002900461293e929190615109565b5060028201816002019080546001816001161561010002031660029004612966929190615109565b509050506040518060400160405280600d81526020017f43657274696669636174696f6e000000000000000000000000000000000000008152506008876040518082805190602001908083835b602083106129d657805182526020820191506020810190506020830392506129b3565b6001836020036101000a03801982511681845116808217855250505050505090500191505090815260200160405180910390209080519060200190612a1c929190615089565b503373ffffffffffffffffffffffffffffffffffffffff167f49d6e0b2ee75bccbbf5948e40862fd92244576a4fed5ece4047d98b41c78f586876040518080602001828103825283818151815260200191508051906020019080838360005b83811015612a96578082015181840152602081019050612a7b565b50505050905090810190601f168015612ac35780820380516001836020036101000a031916815260200191505b509250505060405180910390a26001925050509392505050565b606080612ae86151d9565b6007846040518082805190602001908083835b60208310612b1e5780518252602082019150602081019050602083039250612afb565b6001836020036101000a0380198251168184511680821785525050505050509050019150509081526020016040518091039020604051806060016040529081600082018054600181600116156101000203166002900480601f016020809104026020016040519081016040528092919081815260200182805460018160011615610100020316600290048015612bf55780601f10612bca57610100808354040283529160200191612bf5565b820191906000526020600020905b815481529060010190602001808311612bd857829003601f168201915b50505050508152602001600182018054600181600116156101000203166002900480601f016020809104026020016040519081016040528092919081815260200182805460018160011615610100020316600290048015612c975780601f10612c6c57610100808354040283529160200191612c97565b820191906000526020600020905b815481529060010190602001808311612c7a57829003601f168201915b50505050508152602001600282018054600181600116156101000203166002900480601f016020809104026020016040519081016040528092919081815260200182805460018160011615610100020316600290048015612d395780601f10612d0e57610100808354040283529160200191612d39565b820191906000526020600020905b815481529060010190602001808311612d1c57829003601f168201915b5050505050815250509050806020015181604001518191508090509250925050915091565b60606008826040518082805190602001908083835b60208310612d965780518252602082019150602081019050602083039250612d73565b6001836020036101000a03801982511681845116808217855250505050505090500191505090815260200160405180910390208054600181600116156101000203166002900480601f016020809104026020016040519081016040528092919081815260200182805460018160011615610100020316600290048015612e5d5780601f10612e3257610100808354040283529160200191612e5d565b820191906000526020600020905b815481529060010190602001808311612e4057829003601f168201915b50505050509050919050565b600060405160200180807f5365656450726f647563696e674167656e637900000000000000000000000000815250601301905060405160208183030381529060405280519060200120612ebb336120b3565b6040516020018082805190602001908083835b60208310612ef15780518252602082019150602081019050602083039250612ece565b6001836020036101000a0380198251168184511680821785525050505050509050019150506040516020818303038152906040528051906020012014612f3657600080fd5b6000600b896040518082805190602001908083835b60208310612f6e5780518252602082019150602081019050602083039250612f4b565b6001836020036101000a03801982511681845116808217855250505050505090500191505090815260200160405180910390205414612fac57600080fd5b87600e6000019080519060200190612fc5929190615089565b5086600e6001019080519060200190612fdf929190615089565b5085600e6002019080519060200190612ff9929190615089565b5084600e6003018190555083600e600401908051906020019061301d929190615089565b5082600e6005019080519060200190613037929190615089565b5081600e600601819055506001600b896040518082805190602001908083835b6020831061307a5780518252602082019150602081019050602083039250613057565b6001836020036101000a038019825116818451168082178552505050505050905001915050908152602001604051809103902081905550600e6002896040518082805190602001908083835b602083106130e957805182526020820191506020810190506020830392506130c6565b6001836020036101000a038019825116818451168082178552505050505050905001915050908152602001604051809103902060008201816000019080546001816001161561010002031660029004613143929190615109565b506001820181600101908054600181600116156101000203166002900461316b929190615109565b5060028201816002019080546001816001161561010002031660029004613193929190615109565b5060038201548160030155600482018160040190805460018160011615610100020316600290046131c5929190615109565b50600582018160050190805460018160011615610100020316600290046131ed929190615109565b50600682015481600601559050506040518060400160405280600a81526020017f5365656447726f776572000000000000000000000000000000000000000000008152506008896040518082805190602001908083835b602083106132675780518252602082019150602081019050602083039250613244565b6001836020036101000a038019825116818451168082178552505050505050905001915050908152602001604051809103902090805190602001906132ad929190615089565b503373ffffffffffffffffffffffffffffffffffffffff167fdb5bb510049238c4ea8e5585a1e2f658a7a7636d2cc908acc3abf3aa09ad9b91896040518080602001828103825283818151815260200191508051906020019080838360005b8381101561332757808201518184015260208101905061330c565b50505050905090810190601f1680156133545780820380516001836020036101000a031916815260200191505b509250505060405180910390a260019050979650505050505050565b600060018060003373ffffffffffffffffffffffffffffffffffffffff1673ffffffffffffffffffffffffffffffffffffffff16815260200190815260200160002054146133bd57600080fd5b6000809054906101000a900473ffffffffffffffffffffffffffffffffffffffff1673ffffffffffffffffffffffffffffffffffffffff163373ffffffffffffffffffffffffffffffffffffffff161461341657600080fd5b82600c600001908051906020019061342f929190615089565b5081600c6001019080519060200190613449929190615089565b50600c600a60008673ffffffffffffffffffffffffffffffffffffffff1673ffffffffffffffffffffffffffffffffffffffff168152602001908152602001600020600082018160000190805460018160011615610100020316600290046134b2929190615109565b50600182018160010190805460018160011615610100020316600290046134da929190615109565b5090505081600960008673ffffffffffffffffffffffffffffffffffffffff1673ffffffffffffffffffffffffffffffffffffffff1681526020019081526020016000209080519060200190613531929190615089565b508373ffffffffffffffffffffffffffffffffffffffff167f8eab1db142a914aff8b515eedb9177bd7effaef6d714c41e30bdf152067786078484604051808060200180602001838103835285818151815260200191508051906020019080838360005b838110156135b0578082015181840152602081019050613595565b50505050905090810190601f1680156135dd5780820380516001836020036101000a031916815260200191505b50838103825284818151815260200191508051906020019080838360005b838110156136165780820151818401526020810190506135fb565b50505050905090810190601f1680156136435780820380516001836020036101000a031916815260200191505b5094505050505060405180910390a2600190509392505050565b6000836040518060400160405280600981526020017f50726f636573736f720000000000000000000000000000000000000000000000815250806040516020018082805190602001908083835b602083106136cd57805182526020820191506020810190506020830392506136aa565b6001836020036101000a03801982511681845116808217855250505050505090500191505060405160208183030381529060405280519060200120613711336120b3565b6040516020018082805190602001908083835b602083106137475780518252602082019150602081019050602083039250613724565b6001836020036101000a038019825116818451168082178552505050505050905001915050604051602081830303815290604052805190602001201461378c57600080fd5b806040516020018082805190602001908083835b602083106137c357805182526020820191506020810190506020830392506137a0565b6001836020036101000a0380198251168184511680821785525050505050509050019150506040516020818303038152906040528051906020012061380783612d5e565b6040516020018082805190602001908083835b6020831061383d578051825260208201915060208101905060208303925061381a565b6001836020036101000a038019825116818451168082178552505050505050905001915050604051602081830303815290604052805190602001201461388257600080fd5b856016600001908051906020019061389b929190615089565b508460166001018190555083601660020190805190602001906138bf929190615089565b5060166004876040518082805190602001908083835b602083106138f857805182526020820191506020810190506020830392506138d5565b6001836020036101000a038019825116818451168082178552505050505050905001915050908152602001604051809103902060008201816000019080546001816001161561010002031660029004613952929190615109565b506001820154816001015560028201816002019080546001816001161561010002031660029004613984929190615109565b509050506040518060400160405280600381526020017f4c616200000000000000000000000000000000000000000000000000000000008152506008876040518082805190602001908083835b602083106139f457805182526020820191506020810190506020830392506139d1565b6001836020036101000a03801982511681845116808217855250505050505090500191505090815260200160405180910390209080519060200190613a3a929190615089565b503373ffffffffffffffffffffffffffffffffffffffff167faa6424c4cf9d265ffd1cc169354a98a7951dcf079c05ea4c285a33fc4af1cddf876040518080602001828103825283818151815260200191508051906020019080838360005b83811015613ab4578082015181840152602081019050613a99565b50505050905090810190601f168015613ae15780820380516001836020036101000a031916815260200191505b509250505060405180910390a26001925050509392505050565b606080613b066151fa565b600a60008573ffffffffffffffffffffffffffffffffffffffff1673ffffffffffffffffffffffffffffffffffffffff168152602001908152602001600020604051806040016040529081600082018054600181600116156101000203166002900480601f016020809104026020016040519081016040528092919081815260200182805460018160011615610100020316600290048015613be95780601f10613bbe57610100808354040283529160200191613be9565b820191906000526020600020905b815481529060010190602001808311613bcc57829003601f168201915b50505050508152602001600182018054600181600116156101000203166002900480601f016020809104026020016040519081016040528092919081815260200182805460018160011615610100020316600290048015613c8b5780601f10613c6057610100808354040283529160200191613c8b565b820191906000526020600020905b815481529060010190602001808311613c6e57829003601f168201915b5050505050815250509050806000015181602001518191508090509250925050915091565b6000809054906101000a900473ffffffffffffffffffffffffffffffffffffffff1673ffffffffffffffffffffffffffffffffffffffff163373ffffffffffffffffffffffffffffffffffffffff1614613d0957600080fd5b6000809054906101000a900473ffffffffffffffffffffffffffffffffffffffff1673ffffffffffffffffffffffffffffffffffffffff167ff8df31144d9c2f0f6b59d69b8b98abd5459d07f2742c4df920b25aae33c6482060405160405180910390a260008060006101000a81548173ffffffffffffffffffffffffffffffffffffffff021916908373ffffffffffffffffffffffffffffffffffffffff160217905550565b6000809054906101000a900473ffffffffffffffffffffffffffffffffffffffff1681565b60608060006060806000613de7615214565b6002886040518082805190602001908083835b60208310613e1d5780518252602082019150602081019050602083039250613dfa565b6001836020036101000a03801982511681845116808217855250505050505090500191505090815260200160405180910390206040518060e0016040529081600082018054600181600116156101000203166002900480601f016020809104026020016040519081016040528092919081815260200182805460018160011615610100020316600290048015613ef45780601f10613ec957610100808354040283529160200191613ef4565b820191906000526020600020905b815481529060010190602001808311613ed757829003601f168201915b50505050508152602001600182018054600181600116156101000203166002900480601f016020809104026020016040519081016040528092919081815260200182805460018160011615610100020316600290048015613f965780601f10613f6b57610100808354040283529160200191613f96565b820191906000526020600020905b815481529060010190602001808311613f7957829003601f168201915b50505050508152602001600282018054600181600116156101000203166002900480601f0160208091040260200160405190810160405280929190818152602001828054600181600116156101000203166002900480156140385780601f1061400d57610100808354040283529160200191614038565b820191906000526020600020905b81548152906001019060200180831161401b57829003601f168201915b5050505050815260200160038201548152602001600482018054600181600116156101000203166002900480601f0160208091040260200160405190810160405280929190818152602001828054600181600116156101000203166002900480156140e45780601f106140b9576101008083540402835291602001916140e4565b820191906000526020600020905b8154815290600101906020018083116140c757829003601f168201915b50505050508152602001600582018054600181600116156101000203166002900480601f0160208091040260200160405190810160405280929190818152602001828054600181600116156101000203166002900480156141865780601f1061415b57610100808354040283529160200191614186565b820191906000526020600020905b81548152906001019060200180831161416957829003601f168201915b50505050508152602001600682015481525050905080602001518160400151826060015183608001518460a001518560c001518595508494508292508191509650965096509650965096505091939550919395565b6000836040518060400160405280600b81526020017f4469737472696275746f72000000000000000000000000000000000000000000815250806040516020018082805190602001908083835b6020831061424b5780518252602082019150602081019050602083039250614228565b6001836020036101000a0380198251168184511680821785525050505050509050019150506040516020818303038152906040528051906020012061428f336120b3565b6040516020018082805190602001908083835b602083106142c557805182526020820191506020810190506020830392506142a2565b6001836020036101000a038019825116818451168082178552505050505050905001915050604051602081830303815290604052805190602001201461430a57600080fd5b806040516020018082805190602001908083835b60208310614341578051825260208201915060208101905060208303925061431e565b6001836020036101000a0380198251168184511680821785525050505050509050019150506040516020818303038152906040528051906020012061438583612d5e565b6040516020018082805190602001908083835b602083106143bb5780518252602082019150602081019050602083039250614398565b6001836020036101000a038019825116818451168082178552505050505050905001915050604051602081830303815290604052805190602001201461440057600080fd5b8560206000019080519060200190614419929190615089565b508460206001019080519060200190614433929190615089565b50836020600201908051906020019061444d929190615089565b5060206007876040518082805190602001908083835b602083106144865780518252602082019150602081019050602083039250614463565b6001836020036101000a0380198251168184511680821785525050505050509050019150509081526020016040518091039020600082018160000190805460018160011615610100020316600290046144e0929190615109565b5060018201816001019080546001816001161561010002031660029004614508929190615109565b5060028201816002019080546001816001161561010002031660029004614530929190615109565b509050506040518060400160405280600881526020017f436f6e73756d65720000000000000000000000000000000000000000000000008152506008876040518082805190602001908083835b602083106145a0578051825260208201915060208101905060208303925061457d565b6001836020036101000a038019825116818451168082178552505050505050905001915050908152602001604051809103902090805190602001906145e6929190615089565b503373ffffffffffffffffffffffffffffffffffffffff167fdcdd84aca7058328d676baaa75a4e3af764363b073000e258df8805b7e4ff80b876040518080602001828103825283818151815260200191508051906020019080838360005b83811015614660578082015181840152602081019050614645565b50505050905090810190601f16801561468d5780820380516001836020036101000a031916815260200191505b509250505060405180910390a26001925050509392505050565b6060806146b2615251565b6005846040518082805190602001908083835b602083106146e857805182526020820191506020810190506020830392506146c5565b6001836020036101000a0380198251168184511680821785525050505050509050019150509081526020016040518091039020604051806060016040529081600082018054600181600116156101000203166002900480601f0160208091040260200160405190810160405280929190818152602001828054600181600116156101000203166002900480156147bf5780601f10614794576101008083540402835291602001916147bf565b820191906000526020600020905b8154815290600101906020018083116147a257829003601f168201915b50505050508152602001600182018054600181600116156101000203166002900480601f0160208091040260200160405190810160405280929190818152602001828054600181600116156101000203166002900480156148615780601f1061483657610100808354040283529160200191614861565b820191906000526020600020905b81548152906001019060200180831161484457829003601f168201915b50505050508152602001600282018054600181600116156101000203166002900480601f0160208091040260200160405190810160405280929190818152602001828054600181600116156101000203166002900480156149035780601f106148d857610100808354040283529160200191614903565b820191906000526020600020905b8154815290600101906020018083116148e657829003601f168201915b5050505050815250509050806020015181604001518191508090509250925050915091565b6000846040518060400160405280600d81526020017f43657274696669636174696f6e00000000000000000000000000000000000000815250806040516020018082805190602001908083835b602083106149985780518252602082019150602081019050602083039250614975565b6001836020036101000a038019825116818451168082178552505050505050905001915050604051602081830303815290604052805190602001206149dc336120b3565b6040516020018082805190602001908083835b60208310614a1257805182526020820191506020810190506020830392506149ef565b6001836020036101000a0380198251168184511680821785525050505050509050019150506040516020818303038152906040528051906020012014614a5757600080fd5b806040516020018082805190602001908083835b60208310614a8e5780518252602082019150602081019050602083039250614a6b565b6001836020036101000a03801982511681845116808217855250505050505090500191505060405160208183030381529060405280519060200120614ad283612d5e565b6040516020018082805190602001908083835b60208310614b085780518252602082019150602081019050602083039250614ae5565b6001836020036101000a0380198251168184511680821785525050505050509050019150506040516020818303038152906040528051906020012014614b4d57600080fd5b86601c6000019080519060200190614b66929190615089565b5085601c6001019080519060200190614b80929190615089565b5084601c6002019080519060200190614b9a929190615089565b5083601c60030181905550601c6006886040518082805190602001908083835b60208310614bdd5780518252602082019150602081019050602083039250614bba565b6001836020036101000a038019825116818451168082178552505050505050905001915050908152602001604051809103902060008201816000019080546001816001161561010002031660029004614c37929190615109565b5060018201816001019080546001816001161561010002031660029004614c5f929190615109565b5060028201816002019080546001816001161561010002031660029004614c87929190615109565b50600382015481600301559050506040518060400160405280600b81526020017f4469737472696275746f720000000000000000000000000000000000000000008152506008886040518082805190602001908083835b60208310614d015780518252602082019150602081019050602083039250614cde565b6001836020036101000a03801982511681845116808217855250505050505090500191505090815260200160405180910390209080519060200190614d47929190615089565b503373ffffffffffffffffffffffffffffffffffffffff167f56dc4ac0c60f1a5296ac7207ab7e95630b98083ebc7fc42e6edd84ddc560962b886040518080602001828103825283818151815260200191508051906020019080838360005b83811015614dc1578082015181840152602081019050614da6565b50505050905090810190601f168015614dee5780820380516001836020036101000a031916815260200191505b509250505060405180910390a2600192505050949350505050565b6060614e13615272565b6003836040518082805190602001908083835b60208310614e495780518252602082019150602081019050602083039250614e26565b6001836020036101000a0380198251168184511680821785525050505050509050019150509081526020016040518091039020604051806020016040529081600082018054600181600116156101000203166002900480601f016020809104026020016040519081016040528092919081815260200182805460018160011615610100020316600290048015614f205780601f10614ef557610100808354040283529160200191614f20565b820191906000526020600020905b815481529060010190602001808311614f0357829003601f168201915b50505050508152505090508060000151915050919050565b6000809054906101000a900473ffffffffffffffffffffffffffffffffffffffff1673ffffffffffffffffffffffffffffffffffffffff163373ffffffffffffffffffffffffffffffffffffffff1614614f9157600080fd5b600073ffffffffffffffffffffffffffffffffffffffff168173ffffffffffffffffffffffffffffffffffffffff161415614fcb57600080fd5b8073ffffffffffffffffffffffffffffffffffffffff166000809054906101000a900473ffffffffffffffffffffffffffffffffffffffff1673ffffffffffffffffffffffffffffffffffffffff167f8be0079c531659141344cd1fd0a4f28419497f9722a3daafe3b4186f6b6457e060405160405180910390a3806000806101000a81548173ffffffffffffffffffffffffffffffffffffffff021916908373ffffffffffffffffffffffffffffffffffffffff16021790555050565b828054600181600116156101000203166002900490600052602060002090601f016020900481019282601f106150ca57805160ff19168380011785556150f8565b828001600101855582156150f8579182015b828111156150f75782518255916020019190600101906150dc565b5b5090506151059190615285565b5090565b828054600181600116156101000203166002900490600052602060002090601f016020900481019282601f10615142578054855561517f565b8280016001018555821561517f57600052602060002091601f016020900482015b8281111561517e578254825591600101919060010190615163565b5b50905061518c9190615285565b5090565b60405180606001604052806060815260200160008152602001606081525090565b6040518060800160405280606081526020016060815260200160608152602001600081525090565b60405180606001604052806060815260200160608152602001606081525090565b604051806040016040528060608152602001606081525090565b6040518060e00160405280606081526020016060815260200160608152602001600081526020016060815260200160608152602001600081525090565b60405180606001604052806060815260200160608152602001606081525090565b6040518060200160405280606081525090565b6152a791905b808211156152a357600081600090555060010161528b565b5090565b9056fea265627a7a72315820598eb383c5ed7baffd6fc1c8440449707ea2a4bac74f7be7ff958593ee27e6a364736f6c63430005100032",
  "source": "pragma solidity >=0.5.0;\r\nimport \"./seedOwner.sol\";\r\ncontract seed is seedOwner{\r\n\r\n    //events\r\n    event UserAdded(address indexed user,string name,string userType);\r\n    event BatchAdded(address indexed user,string  batchNo);\r\n    event DoneCultivation(address indexed user,string  batchNo);\r\n    event DoneProcessing(address indexed user,string  batchNo);\r\n    event DoneLab(address indexed user,string  batchNo);\r\n    event DoneCertification(address indexed user,string  batchNo);\r\n    event DoneDistribution(address indexed user,string  batchNo);\r\n\r\n\r\n    constructor() public{\r\n        authorizedCaller[msg.sender] = 1;\r\n    }\r\n\r\n    modifier onlyAuthCaller(){\r\n        require(authorizedCaller[msg.sender] == 1);\r\n        _;\r\n    }\r\n    modifier isValidPerformer(string memory batchNo,string memory role){\r\n        require(keccak256(abi.encodePacked(getUserRole(msg.sender))) == keccak256(abi.encodePacked(role)));\r\n        require(keccak256(abi.encodePacked(getNextAction(batchNo))) == keccak256(abi.encodePacked(role)));\r\n        _;\r\n    }\r\n    //authorizeCalller Mapping\r\n    mapping(address => uint) authorizedCaller;\r\n\r\n    //strcutures\r\n    struct user{\r\n        string name;\r\n        string userType;\r\n    }\r\n    struct BatchDetails{ \r\n        string batchId;\r\n        string crop;\r\n        string variety;\r\n        uint sourceQuantity;\r\n        string Date;\r\n        string Owner;\r\n        uint plotno;\r\n    }\r\n    struct seedGrower{\r\n        string date;\r\n    }\r\n    struct processor{\r\n        string batchId;\r\n        uint quantity;\r\n        string date;\r\n    }\r\n    struct lab{\r\n        string  batchId;\r\n        string date;\r\n        string result;\r\n    }\r\n    struct certification{\r\n        string batchId;\r\n        string certifacateNo;\r\n        string date;\r\n        uint validity;\r\n    }\r\n    struct distribution{\r\n        string batchId;\r\n        string storeHouse;\r\n        string Date;\r\n    }\r\n\r\n    //mappings\r\n    mapping(string => BatchDetails) batchBasicDetails;\r\n    mapping(string =>seedGrower) batchGrower;\r\n    mapping(string => processor) batchProcessor;\r\n    mapping(string => lab) batchLab;\r\n    mapping(string => certification) batchCertification;\r\n    mapping(string => distribution) batchDistribution;\r\n    mapping(string => string) nextAction;\r\n    mapping(address => string) userRole;\r\n    mapping(address =>user) userDetails;\r\n    mapping(string => uint) batchPresent;\r\n    //struct variables\r\n    user userData;\r\n    BatchDetails batchData;\r\n    seedGrower seedGrowerData;\r\n    processor processorData;\r\n    lab labData;\r\n    certification certificationData;\r\n    distribution distributionData;\r\n\r\n    //functions\r\n\r\n    function getUserRole(address _user) public view returns(string memory){\r\n        return userRole[_user];\r\n    }\r\n\r\n    function getNextAction(string memory batchNo) public view returns(string memory){\r\n        return nextAction[batchNo];\r\n    }\r\n\r\n    function setUser(address _userAddress,\r\n                    string memory _name,\r\n                    string memory _userType) public onlyAuthCaller onlyOwner returns(bool){\r\n        userData.name = _name;\r\n        userData.userType = _userType;\r\n\r\n        userDetails[_userAddress] = userData;\r\n        userRole[_userAddress] = _userType;\r\n\r\n        emit UserAdded(_userAddress,_name,_userType);\r\n        return true;             \r\n    }\r\n\r\n    function getUser(address _user) public view returns(\r\n        string memory name,\r\n        string memory userType\r\n    ){\r\n        user memory temp = userDetails[_user];\r\n        return(temp.name,temp.userType);\r\n    }\r\n\r\n    //seed agency\r\n\r\n    function setBatchDetails(string memory _batchId,\r\n        string memory _crop,\r\n        string memory _variety,\r\n        uint _sourceQuantity,\r\n        string memory _Date,\r\n        string memory _Owner,\r\n        uint _plotno) public returns(bool){\r\n    require(keccak256(abi.encodePacked(getUserRole(msg.sender))) == keccak256(abi.encodePacked('SeedProducingAgency')));\r\n    require(batchPresent[_batchId] == 0);\r\n\r\n    batchData.batchId = _batchId;\r\n    batchData.crop = _crop;\r\n    batchData.variety = _variety;\r\n    batchData.sourceQuantity = _sourceQuantity;\r\n    batchData.Date = _Date;\r\n    batchData.Owner = _Owner;\r\n    batchData.plotno = _plotno;\r\n    \r\n    batchPresent[_batchId] = 1;\r\n    batchBasicDetails[_batchId] = batchData;\r\n\r\n    nextAction[_batchId] = 'SeedGrower';\r\n    emit BatchAdded(msg.sender,_batchId);\r\n    return true;\r\n    }\r\n\r\n    function getBatchDetails(string memory _batchId) public view returns(string memory _crop,\r\n        string memory _variety,\r\n        uint _sourceQuantity,\r\n        string memory _Date,\r\n        string memory _Owner,\r\n        uint _plotno){\r\n        BatchDetails memory temp = batchBasicDetails[_batchId];\r\n        return (temp.crop,temp.variety,temp.sourceQuantity,temp.Date,temp.Owner,temp.plotno);\r\n\r\n    }\r\n\r\n    //seed Grower\r\n\r\n    function setSeedGrower(string memory _batchId,string memory _date) public isValidPerformer(_batchId,'SeedGrower') returns(bool){\r\n        seedGrowerData.date = _date;\r\n        batchGrower[_batchId] = seedGrowerData;\r\n\r\n        nextAction[_batchId] = 'Processor';\r\n\r\n        emit DoneCultivation(msg.sender,_batchId);\r\n\r\n        return true;\r\n\r\n    }\r\n\r\n    function getSeedGrower(string memory _batchId) public view returns(string memory date){\r\n        seedGrower memory temp = batchGrower[_batchId];\r\n        return(temp.date);\r\n    }\r\n\r\n    //processor\r\n    function setProcessor( string memory _batchId,\r\n        uint _quantity,\r\n        string memory _date) public isValidPerformer(_batchId,'Processor') returns(bool){\r\n        processorData.batchId = _batchId;\r\n        processorData.quantity = _quantity;\r\n        processorData.date = _date;\r\n\r\n        batchProcessor[_batchId] = processorData;\r\n\r\n        nextAction[_batchId] = 'Lab';\r\n\r\n        emit DoneProcessing(msg.sender,_batchId);\r\n        return true;\r\n    \r\n    }\r\n\r\n    function getProcessor(string memory _batchId) public view returns(uint _quantity,\r\n        string memory _date){\r\n            \r\n            processor memory temp = batchProcessor[_batchId];\r\n            return(temp.quantity,temp.date);\r\n    }\r\n\r\n\r\n    //lab\r\n    function setLab( string memory _batchId,\r\n        string memory _date,\r\n        string memory _result) public isValidPerformer(_batchId,'Lab') returns(bool){\r\n       labData.batchId = _batchId;\r\n       labData.date = _date;\r\n       labData.result = _result;\r\n\r\n        batchLab[_batchId] = labData;\r\n        nextAction[_batchId] = 'Certification';\r\n        emit DoneLab(msg.sender,_batchId);\r\n        return(true);\r\n\r\n    }\r\n\r\n    function getLab(string memory _batchId) public view returns(string memory _date,\r\n        string memory _result){\r\n            lab memory temp = batchLab[_batchId];\r\n            return(temp.date,temp.result);\r\n    }\r\n\r\n    //certification egency\r\n\r\n    function setCertification(string memory _batchId,\r\n        string memory _certifacateNo,\r\n        string memory _date,\r\n        uint _validity) public isValidPerformer(_batchId,'Certification') returns(bool){\r\n    \r\n    certificationData.batchId = _batchId;\r\n    certificationData.certifacateNo = _certifacateNo;\r\n    certificationData.date = _date;\r\n    certificationData.validity = _validity;\r\n\r\n    batchCertification[_batchId] =  certificationData;  \r\n    nextAction[_batchId] = 'Distributor';\r\n    emit DoneCertification(msg.sender,_batchId);\r\n    return true;\r\n    \r\n    }\r\n\r\n    function getCertification(string memory _batchId) public view returns(string memory _certifacateNo,\r\n        string memory _date,\r\n        uint _validity){\r\n    \r\n    certification memory temp = batchCertification[_batchId];\r\n    return(temp.certifacateNo,temp.date,temp.validity);\r\n    \r\n    }\r\n\r\n    //distributor\r\n\r\n    function setDistribution(string memory _batchId,\r\n        string memory _storeHouse,\r\n        string memory _Date) public isValidPerformer(_batchId,'Distributor') returns(bool){\r\n\r\n    distributionData.batchId = _batchId;\r\n    distributionData.storeHouse = _storeHouse;\r\n    distributionData.Date = _Date;\r\n\r\n    batchDistribution[_batchId]  = distributionData;\r\n    nextAction[_batchId] = 'Consumer';\r\n    emit DoneDistribution(msg.sender,_batchId);\r\n    return true;\r\n    }\r\n\r\n    function getDistribution(string memory _batchId) public view returns(string memory _storeHouse,\r\n        string memory _Date){\r\n            distribution memory temp = batchDistribution[_batchId];\r\n            return(temp.storeHouse,temp.Date);\r\n    }\r\n\r\n\r\n}",
  "sourcePath": "C:\\Users\\Nikhil\\Desktop\\hackathon\\contracts\\seedSupply.sol",
  "compiler": {
    "name": "solc",
    "version": "0.5.16+commit.9c3226ce.Emscripten.clang"
  },
  "schemaVersion": "3.2.0",
  "updatedAt": "2020-10-31T08:17:37.603Z",
  "devdoc": {
    "methods": {
      "renounceOwnership()": {
        "details": "Allows the current owner to relinquish control of the contract."
      },
      "transferOwnership(address)": {
        "details": "Allows the current owner to transfer control of the contract to a newOwner.",
        "params": {
          "newOwner": "The address to transfer ownership to."
        }
      }
    }
  },
  "userdoc": {
    "methods": {}
  }
}